:1000000010308A0000280000FF00030E8301A100C9
:100010000A08A0008A010408A2007708A300780853
:10002000A4007908A5007A08A60003170D08031399
:10003000A70003170F080313A80003170C080313E6
:10004000A90003170E080313AA00831383128B1E43
:100050002B280B194C28220884002308F7002408B9
:10006000F8002508F9002608FA00270803178D0074
:100070000313280803178F000313290803178C00A4
:1000800003132A0803178E00031320088A00210E89
:100090008300FF0E7F0E09008A110A12CA280A1077
:1000A0008A100A11820728340C34013406342010D7
:1000B00020102022C9295026C12C201020102010E9
:1000C0002010000020102010A029452AD424CE237F
:1000D0002010201020102010000120102010A02639
:1000E0004127D5204C102010201020102010000196
:1000F00020102010A020552A4F1020102010201072
:10010000201020100001201020102010201020109E
:10011000201020102010000120102010201020108E
:100120002010201020102010000020102010AD16EC
:10013000A0274E10AD162010200020102010AD1664
:10014000A0274623A0162D10200020102010AD1649
:1001500020234127A0162D10200020102010AD16BE
:1001600020264522A0162D10200020102010202A25
:100170004F283A002010201020214F2A3A0020104A
:10018000AD162026C923482AA0162D002010D424FD
:10019000CD223A003D3081000130AD0741084002D8
:1001A000031DDB28300BDB2883168612831286168C
:1001B000C001B001EE282D08643C031DEE282F0B72
:1001C000EE28300BEE280130C007AD01AE08031950
:1001D000EC2801302E02ED280030AE000B118A1100
:1001E0000A122B28C618BA274E100001C618BA27C3
:1001F000462300014619BA274E1000014619BA27B6
:10020000462300014C1D4F2720004C1D4F23460064
:10021000201020102022C9295026C12C00012010B6
:100220002010A029452AD424CE230001D4326D38D1
:10023000BA1230192E18660043002010AD16A02601
:100240004127D5204C10AD16000120102029C520D3
:10025000C42CA010A110201000012010AD16A02663
:100260004127D5204C10AD1600012010A029C82A26
:100270005422CF2B4E10A11021002A0020002A006A
:1002800020005430840083130008031955290130DD
:10029000F800F701F70B4A29F80B49294A30F70013
:1002A000F70B50295329800B472908005B185A295E
:1002B00008125B290816831608128312DB186229BC
:1002C0008812632988168316881283125B196A299B
:1002D00008136B290817831608138312DB19722978
:1002E00088137329881783168813000083128815D2
:1002F000831688117B298312881183168811831233
:100300000800DC018316081600308312081A013039
:10031000DC048316881600308312881A0130F70037
:100320000310F70D7708DC048316081700308312DA
:10033000081B0130F700F70DF70DFC30F7057708C3
:10034000DC048316881700308312881B0130F70005
:10035000F70DF70DF70DF830F7057708DC045C08AA
:10036000F8000800881083168810081688160817E9
:100370008817831208158316081100008312881548
:10038000831688110000831281217808DB00881110
:1003900083168811000083128815831688110000C7
:1003A000831281217808DA008811831688110812D7
:1003B00088120813881383125B0EF700F030F705DC
:1003C00077085A04F8007808DA00DA1FE92983165A
:1003D000B529D808031DEE298810EF298814831643
:1003E0008810000083120811831608110000831280
:1003F0008811831688118312590EDA000F30DA053E
:100400005A08DB00562159080F39DA00DB00562163
:1004100008008316081288120813881388118810A0
:10042000081183128810831688108312081183160E
:10043000081183128811831688110F308312D4009B
:1004400041210130C6004608033C031C2F2A03301B
:10045000DB0056210530D4004121C60A232A023090
:10046000DB005621C6014608033C031C402A46080F
:100470004F20C700D8014708D900B221C60A332A45
:100480008A110A161C28550B472AD6015B2A5508E3
:10049000023C031D4E2A4030D6005B2A5508033C1F
:1004A000031D552A1430D6005B2A5508043C031D51
:1004B0005B2A5430D60001305402D60756088038E3
:1004C000D700D8015708D900B221080053080C3AC8
:1004D0000319712A063A0319792A023A03197F2A65
:1004E000842AD8010130D900B2210230D400412140
:1004F000892A0130D4000230D5004322892AD8014C
:100500001030D900B221892A0130D8005308D9000F
:10051000B22108000B08C7008B13831603178C1732
:100520000C140000000083120313C71B8B17031762
:100530000C087F390319DE2A0313C70003170D08BF
:100540000313C80003170F080313C9004708D3009B
:100550006622480803178D000313490803178F000C
:1005600003130B08CA008B13831603178C170C1484
:100570000000000083120313CA1B8B1703170C0D16
:100580000E0D7F390319DE2A0313C70003170D0868
:100590000313C80003170F080313C9004708D3004B
:1005A0006622480803178D000313490803178F00BC
:1005B0008D0A03198F0A03138A2A031703130800ED
:1005C0008E30F7004908F8004808F900FA01F808E9
:1005D000031DF42A7908F800F9010830F702F80839
:1005E000031DF42AF701FC2A0310F81BFB2AF90D5E
:1005F000F80DF703F42AF8130800530803196D2BBC
:10060000DB00570803196D2BDB0703180E2B7F3017
:10061000DB02031C6D2B03196D2B122B8130DB07C2
:1006200003186D2B5B08F700F801F901FA01540873
:10063000DF00DF175508DE005608DD001830DB004C
:10064000DC015D1C3B2B5A08FA07031C2D2BF90A11
:10065000031D2D2BF80A0319DC175908F907031C91
:10066000342BF80A0319DC175808D500D51755089C
:10067000F8070318DC17DC0DF80CF90CFA0CDF0C8A
:10068000DE0CDD0C0310DB0B202B0130F707031809
:100690006D2BF81B522BDF0DFA0DF90DF80DF7033A
:1006A00003196D2BDF1F632BFA0A031D632BF90A55
:1006B000031D632BF80A031D632BF80CF90CFA0CCD
:1006C000F70A03196D2B5408DC005808DC06DC1F00
:1006D0006B2BF817712BF813712BF701F801F90147
:1006E000FA0108004A080319372CD6004E080319EE
:1006F000372CD602031C812B7F30D6070318372CEA
:10070000872B8130D602031C372C0319372C56084F
:10071000F700F801F901FA01D5014B08D400D4170C
:100720004C08D3004D08D2001930D6005108D2022F
:100730000318AA2B0130D3020318AA2BD4020318E2
:10074000AA2BD5020318AA2BD50AD40AD30A51081A
:10075000D207DC2B5008D3020318C52B0130D4027A
:100760000318C52BD5020318C52BD50AD40A500887
:10077000D3075108D207031CDC2BD30A031DDC2B43
:10078000D40A031DDC2BD50ADC2B4F088038D40299
:100790000318DB2B0130D5020318DB2BD50A4F08D9
:1007A0008038D4075008D307031CB92BD40A031D83
:1007B000B92BD50AB92B7A14D60BDF2BEA2B0310F1
:1007C000D20DD30DD40DD50D0310FA0DF90DF80D82
:1007D000D70D962B571CF22B0310F80CF90CFA0CC2
:1007E000D70CF52BF7030319372CD71B1E2C03103E
:1007F000D20DD30DD40DD50D5108D20203180A2CF9
:100800000130D30203180A2CD40203180A2CD50293
:10081000031C2D2C5008D3020318152C0130D402D0
:100820000318152CD502031C2D2C4F088038D40238
:1008300003181E2C0130D502031C2D2CFA0A031DAF
:100840002D2CF90A031D2D2CF80A031D2D2CF70A57
:100850000319372CF80CF90CFA0C4B08D6004F088A
:10086000D606D61F352CF8173B2CF8133B2CF70176
:10087000F801F901FA0108000130D400D500432243
:10088000573003178D0000308F0003138A22013088
:10089000D4000230D5004322623003178D000030AF
:1008A0008F0003138A220130D4004608D50043226A
:1008B0003E30D300662208000130D400D500432228
:1008C000833003178D0000308F0003138A2201301C
:1008D000D4000230D50043228C3003178D00003045
:1008E0008F0003138A220800061E832C0230D400D6
:1008F0000130D5004322F23003178D0000308F0005
:1009000003138A228F2C0230D4000130D5004322F9
:10091000F63003178D0000308F0003138A22871CE6
:100920009E2C0A30D4000130D5004322FA30031740
:100930008D0000308F0003138A22AA2C0A30D400C5
:100940000130D5004322FE3003178D0000308F00A8
:1009500003138A22861EB82C0230D400D50043220D
:10096000023003178D0001308F0003138A22C32C3D
:100970000230D400D5004322053003178D0001302A
:100980008F0003138A228A110A167F290B08C700D9
:100990008B13831603178C170C14000000008312AE
:1009A0000313C71B8B170318FD2C03170C087F3983
:1009B0000313C70003170D080313C80003170F081C
:1009C0000313C9004708D3006622480803178D00A7
:1009D0000313490803178F0003130B08CA008B1376
:1009E000831603178C170C140000000083120313E6
:1009F000CA1B8B17C60BFD2C1C2D03170C0D0E0DDF
:100A00007F390313C70003170D080313C80003172A
:100A10000F080313C9004708D300662248080317CC
:100A20008D000313490803178F008D0A03198F0ADD
:100A300003100313C60BC62C8A110A1692298318B9
:100A4000242D5B3084008313F701F801F901FA01CA
:100A5000DB01DC01DD01DE015A08590458045704AA
:100A60000319622D2030DF000310D30DD40DD50DF6
:100A7000D60DDB0DDC0DDD0DDE0D5A085E02031D0B
:100A80004B2D59085D02031D4B2D58085C02031DB8
:100A90004B2D57085B02031C5C2D5708DB025808DE
:100AA000031C580FDC025908031C590FDD025A08B9
:100AB000031C5A0FDE020314F70DF80DF90DFA0DA1
:100AC000DF0B342D5B088000840A5C088000840AF8
:100AD0005D088000840A5E08800008000408CB00DE
:100AE0004A08CD0003198D2D4908D6004808D500C5
:100AF0004708D4004608D300DA01D9012030D800D5
:100B00008230D700FD227A08C9007908C800780829
:100B1000C7007708C600CD0B742D4908D6004808D9
:100B2000D5004708D4004608D3005308B63CD3008C
:100B3000FA015408D700D4170310D40CD50CD60CE6
:100B4000FA0CF90CF80CF70CD30B9C2DD71FB32D16
:100B5000F709F809F909FA09F70A0319F80A031954
:100B6000F90A0319FA0A7A08C9007908C80078084E
:100B7000C7007708C600C91FCA2DCB03CB16C6090C
:100B8000C709C809C909C60A0319C70A0319C80A47
:100B90000319C90A3B30D2009A30D100CA30D000C4
:100BA000CF010A30CD004A080319CB0A831446301E
:100BB000840083134908D6004808D5004708D400AC
:100BC0004608D3005208DA005108D9005008D8006E
:100BD0004F08D7001F257808F708031D022E4A0A80
:100BE0004D020319022E4B080319042E0F394D0232
:100BF0000319FC2D0318342ECB1B342E4B1B042E53
:100C00002030302E2030CB05CB1E122ECB124A08BE
:100C1000031DCB037708CB002D30D30066224B0891
:100C2000F700CB014A084D02031D202E7708CB00A8
:100C30002E30D30066224B08F7002030CB05003061
:100C40003030CB1E302ECB124A08031DCB03770861
:100C5000CB002D30D30066224B08F700CB0130309B
:100C6000F7077708D300662283105208D600510890
:100C7000D5005008D4004F08D300DA01D901D801BB
:100C80000A30D7001F257A08D2007908D1007808E9
:100C9000D0007708CF00CD0BD62D8A110A16A029D7
:100CA0000130D400D50043226D3003178D00003091
:100CB0008F0003138A220130D4000230D500432272
:100CC000783003178D0000308F0003138A22013023
:100CD000D4004608D50043223E30D30066220800E7
:100CE0000130D400D5004322953003178D00003029
:100CF0008F0003138A220130D4000230D500432232
:100D00009D3003178D0000308F0003138A220130BD
:100D1000D4004608D50043223E30D30066220800A6
:100D2000D4010130D5004322A53003178D000030D7
:100D30008F0003138A22D4010230D5004322AD3044
:100D400003178D0000308F0003138A220130D40076
:100D50004608D50043223E30D300662208004908E9
:100D6000D0004D08D006D01FBA2E03110310C91BA6
:100D70000314ED2E4908D0004C08D1004808D102D8
:100D80000319C82ED01FED2E0308013A8300ED2E63
:100D90004D08D1004908D1020319D42ED01FED2EE1
:100DA0000308013A8300ED2E4E08D1004A08D10213
:100DB0000319E02ED01FED2E0308013A8300ED2E1B
:100DC0004F08D1004B08D1020319EC2ED01FED2E95
:100DD0000308013A8300ED2E03100800C9014608FC
:100DE000C800E0227A08CB007908CA007808C90058
:100DF0007708C8003D08CF003C08CE003B08CD0076
:100E00003A08CC00AF26031C102F8316061283125B
:100E10000616C310430883168700831287146A2FAF
:100E2000C9014708C800E0227A08CB007908CA0047
:100E30007808C9007708C8003D08CF003C08CE00FC
:100E40003B08CD003A08CC00AF26031C492FC9014E
:100E50004608C800E0223D08CB003C08CA003B0819
:100E6000C9003A08C8007A08CF007908CE0078088F
:100E7000CD007708CC00AF26031C492F831606123D
:100E800083120616C3104308831687008312871047
:100E90006A2FC9014708C800E0223D08CB003C0882
:100EA000CA003B08C9003A08C8007A08CF00790890
:100EB000CE007808CD007708CC00AF26031C6A2F3F
:100EC0000612831606128312C31043088316870086
:100ED0008312871008000130D400D5004322B530BA
:100EE00003178D0000308F0003138A220130D400D5
:100EF0000230D5004322BA3003178D0000308F0036
:100F000003138A220130D4004608D50043223E3024
:100F1000D300662208004D08F8014C020318932FF5
:100F20004C08F7009F2FF7010830CE00CC0DF70DCD
:100F30004D0877020318F700F80DCE0B962F080026
:100F40002030471E3030C8004608F700C61FB02FBB
:100F5000F709F70A7708C6002D30C800C7174714ED
:100F60004608CC006430CD008B277708C6003030AF
:100F70007807C9004608CC000A30CD008B273030F6
:100F80007707CB0030307807CA004808F7003030C8
:100F900049020319CF2FC714C71B4715E32F480871
:100FA000C9002030C80030304A020319DB2F471433
:100FB000C71BC714E32F031D4714031DE32F490864
:100FC000CA002030C9004719EA2FC718ED2F47186B
:100FD000F02FF32F4808D30066224908D300662279
:100FE0004A08D30066224B08D300662208003D3031
:0E0FF00081008B16C0308B048A110A16AE2FBA
:101000000130D400D5008A1143228A15BF3003175E
:101010008D0000308F008A1103138A228A15013057
:10102000D4000230D5008A1143228A15C630031736
:101030008D0000308F008A1103138A228A150F3029
:10104000D4000230D5008A1143228A157330D300B0
:081050008A1166228A150800CE
:1020000003081F3983000130AB00AC01AD01AE0104
:10201000AF01B000B101BF01BE01C001C201FF307C
:10202000C30083161F149F141F159F1107309C00B7
:1020300083130A128312092A0A160130D400D5002C
:102040000A1243220A16083003178D0001308F0050
:102050000A1203138A220A160130D4000230D50076
:102060000A1243220A160F3003178D0001308F0029
:102070000A1203138A220A160130D400D5000A126C
:1020800043220A163E30D3000A1266220A1683162D
:102090000108C039073881001F1383121F179F17CB
:1020A00083169F1783121F1483161F149F101F156A
:1020B0009F110030F80083121F08C73978049F0071
:1020C0002D30C4002830C500831686128312861274
:1020D0008316061283120612C31043088316870064
:1020E000831287101F151F1973281E08F900831605
:1020F0001E08F8007908FA001E088312C800790843
:10210000C9000A12E0220A167A08B9007908B80054
:102110007808B7007708B6003908D6003808D50027
:102120003708D4003608D300DA01D9012030D800AE
:102130008130D7000A12FD220A167A08C9007908F0
:10214000C8007808C7007708C6004908CD004808CD
:10215000CC004708CB004608CA00D101C030D000EF
:102160007F30CF008830CE000A1272230A167A0818
:10217000B5007908B4007808B3007708B2003508D4
:10218000CD003408CC003308CB003208CA000A3036
:10219000D100D730D0002330CF007830CE000A12E3
:1021A00072230A167A08BD007908BC007808BB00C3
:1021B0007708BA008316061483120618F1288316CE
:1021C00006148312061CDF282B0BE8280230EA28AD
:1021D00001302B02AB002B08C6000A123C240A1661
:1021E00009298316861483128618092983168614F2
:1021F0008312861CF6282B08023C031D012901309E
:10220000032901302B07AB002B08C6000A123C241F
:102210000A168316061583120619032A2B0B032AA6
:102220000A125C240A160130AB001F151F1916296B
:102230001E08F90083161E08F8007908FA001E0827
:102240008312C8007908C9000A12E0220A167A0827
:10225000B9007908B8007808B7007708B6003908DF
:10226000D6003808D5003708D4003608D300DA0184
:10227000D9012030D8008130D7000A12FD220A1679
:102280007A08C9007908C8007808C7007708C6002E
:102290004908CD004808CC004708CB004608CA00D2
:1022A000D101C030D0007F30CF008830CE000A127C
:1022B00072230A167A08B5007908B4007808B300CA
:1022C0007708B2003508CD003408CC003308CB00C5
:1022D0003208CA000A30D100D730D0002330CF00F6
:1022E0007830CE000A1272230A167A08BD007908E7
:1022F000BC007808BB007708BA000A12742C0A16D2
:102300000830D4000230D5000A1243220A161630D3
:1023100003178D0001308F00031005300313C60032
:102320000A12C62C0A16413084003D08C9003C0838
:10233000C8003B08C7003A08C600CA010A126E2D41
:102340000A16DF30D3000A1266220A161C30031761
:102350008D0001308F000A1203138A220A16831699
:10236000861583128619C329831686158312861D46
:10237000B4290A125C240A162B08C6000A123C244F
:102380000A16022A012A831686178312861BD6296B
:10239000831686178312861FC829B1080319D52909
:1023A00083160612103083128606012A831606173A
:1023B0008312061BE929831606178312061FDB29E1
:1023C000B1080319E8298316861220308312860685
:1023D000012A431443088316870083120718012A31
:1023E00043144308831687008312071CF029B108A1
:1023F0000319012AC3104308831687000230831291
:1024000087061529E92F8316061583120619E92F69
:102410002B08023C031DE92F831606158312061DA7
:102420000C2A0A125C240A162B08C6000A1250262F
:102430000A168316061483120618302A8316061409
:102440008312061C1E2A2B0B272A0230292A013050
:102450002B02AB002B08C6000A1250260A16E82FE2
:102460008316861483128618492A831686148312CB
:10247000861C352A2B08023C031D402A0130422AC3
:1024800001302B07AB002B08C6000A1250260A1693
:10249000E82F83168615831286195D2A8316861502
:1024A0008312861D4E2A0A125C240A162B08C600C7
:1024B0000A123C240A16E92FE82F83168617831286
:1024C000861B702A831686178312861F622AB1081C
:1024D00003196F2A83160612103083128606E82F1E
:1024E000831606178312061B832A83160617831288
:1024F000061F752AB1080319822A83168612203016
:1025000083128606E82F431443088316870083123C
:1025100007189C2A43144308831687008312071C5C
:102520008A2AB10803199B2AC3104308831687001F
:10253000023083128706E82F8316061583120619C8
:10254000092C2B0B092C831606158312061DA32AB2
:102550002B08C6000A1270260A1683160614831268
:102560000618C62A831606148312061CB22A2B0BE1
:10257000BB2A0230BD2A01302B02AB002B08C6005B
:102580000A1270260A160130C200072C8316861420
:1025900083128618E12A831686148312861CCB2A9E
:1025A0002B08023C031DD62A0130D82A01302B0704
:1025B000AB002B08C6000A1270260A160130C200B2
:1025C000072C8316861583128619F52A831686151D
:1025D0008312861DE62A0A125C240A162B08C600FE
:1025E0000A1250260A16082C072C83168617831207
:1025F000861B082B831686178312861FFA2AB108BA
:102600000319072B83160612103083128606072C37
:10261000831606178312061B1B2B831606178312BD
:10262000061F0D2BB10803191A2B831686122030B2
:1026300083128606072C43144308831687008312EF
:102640000718342B43144308831687008312071C92
:10265000222BB1080319332BC310430883168700BC
:10266000023083128706072C83160615831206197B
:102670009D2B2B0B9D2B831606158312061D3B2BC2
:102680000130D400D5000A1243220A161D30031768
:102690008D0001308F000A1203138A220A160130BE
:1026A000D4000230D5000A1243220A16253003173F
:1026B0008D0001308F000A1203138A220A1601309E
:1026C000B100AB008316861583128619762B83160C
:1026D00086158312861D672B0A125C240A162B08A6
:1026E000C6000A1270260A169C2B9B2B831686178F
:1026F0008312861B892B831686178312861F7B2BDA
:10270000B1080319882B831606121030831286062F
:102710009B2B831606178312061B9B2B831606170B
:102720008312061F8E2BB10803199B2B831686126A
:10273000203083128606622B072C8316061583121F
:102740000619072C2B08023C031D072C83160615BF
:102750008312061DA62B0130D400D5000A12432295
:102760000A162D3003178D0001308F000A12031353
:102770008A220A160130D4000230D5000A12432200
:102780000A16353003178D0001308F000A1203132B
:102790008A220A16B1010130AB0083168615831216
:1027A0008619E12B831686158312861DD22B0A12F9
:1027B0005C240A162B08C6000A1270260A16072C7B
:1027C000062C831686178312861BF42B8316861716
:1027D0008312861FE62BB1080319F32B831606120A
:1027E000103083128606062C831606178312061BEA
:1027F000062C831606178312061FF92BB10803193E
:10280000062C83168612203083128606CD2BAD2A25
:10281000E82F8316061583120619E82F2B08023CB1
:10282000031DE82F831606158312061D122C0A12AB
:102830005C240A162B08C6000A1290260A161F15D9
:102840001F19202C1E08F90083161E08F8007908AD
:10285000FA001E088312C8007908C9000A12E02293
:102860000A167A08B9007908B8007808B70077081E
:10287000B6003908D6003808D5003708D400360825
:10288000D300DA01D9012030D8008130D7000A12F4
:10289000FD220A167A08C9007908C8007808C7001E
:1028A0007708C6004908CD004808CC004708CB008F
:1028B0004608CA00D101C030D0007F30CF00883038
:1028C000CE000A1272230A167A08B5007908B400FD
:1028D0007808B3007708B2003508CD003408CC0082
:1028E0003308CB003208CA000A30D100D730D000FC
:1028F0002330CF007830CE000A1272230A167A08ED
:10290000BD007908BC007808BB007708BA0044080D
:10291000C6004508C7000A12EE260A1683160614DA
:1029200083120618A52C831606148312061C932CFA
:102930002B0B9C2C02309E2C01302B02AB002B0861
:10294000C6000A1290260A16E72F831686148312F1
:102950008618BE2C831686148312861CAA2C2B087C
:10296000023C031DB52C0130B72C01302B07AB0006
:102970002B08C6000A1290260A16E72F8316861522
:1029800083128619D22C831686158312861DC32CBA
:102990000A125C240A162B08C6000A1250260A16D0
:1029A000E82FE72F8316061583120619952E2B0B99
:1029B000952E831606158312061DD92C0A125C2447
:1029C0000A162B08C6000A126B270A160C30D40010
:1029D0000130D5000A1243220A164408C6001330FB
:1029E000C7000A12A0270A160C30D4000230D50006
:1029F0000A1243220A164508C6001330C7000A12FD
:102A0000A0270A161F151F19032D1E08F90083168B
:102A10001E08F8007908FA001E088312C800790819
:102A2000C9000A12E0220A167A08B9007908B8002B
:102A30007808B7007708B6003908D6003808D500FE
:102A40003708D4003608D300DA01D9012030D80085
:102A50008130D7000A12FD220A167A08C9007908C7
:102A6000C8007808C7007708C6004908CD004808A4
:102A7000CC004708CB004608CA00D101C030D000C6
:102A80007F30CF008830CE000A1272230A167A08EF
:102A9000B5007908B4007808B3007708B2003508AB
:102AA000CD003408CC003308CB003208CA000A300D
:102AB000D100D730D0002330CF007830CE000A12BA
:102AC00072230A167A08BD007908BC007808BB009A
:102AD0007708BA004408C6004508C7000A12EE2667
:102AE0000A168316061483120618882D83160614F8
:102AF0008312061C762D2B0B7F2D0230812D013089
:102B00002B02AB002B08C6000A126B270A16A02D59
:102B10008316861483128618A02D831686148312BA
:102B2000861C8D2D2B08023C031D982D01309A2DFB
:102B300001302B07AB002B08C6000A126B270A16C0
:102B400083160615831206190F2E2B0B0F2E8316D4
:102B500006158312061DA72D1030D4000130D500B4
:102B60000A1243220A163D3003178D0001308F00F0
:102B70000A1203138A220A168316061483120618F1
:102B8000D72D831606148312061CC12D0C30D400D9
:102B90000130D5000A1243220A160130C407440846
:102BA000C6001330C7000A12A0270A160D2E83167E
:102BB000861483128618F22D831686148312861CBF
:102BC000DC2D0C30D4000130D5000A1243220A1645
:102BD0000130C4024408C6001330C7000A12A027FF
:102BE0000A160D2E83160615831206190D2E83164E
:102BF00006158312061DF72D1030D4000130D500C4
:102C00000A1243220A163E3003178D0001308F004E
:102C10000A1203138A220A160E2EBC2D932E831637
:102C2000061583120619802E2B08023C031D802EE8
:102C3000831606158312061D182E1030D40002309C
:102C4000D5000A1243220A163F3003178D000130C7
:102C50008F000A1203138A220A168316061483129F
:102C60000618482E831606148312061C322E0C30CA
:102C7000D4000230D5000A1243220A160130C507DB
:102C80004508C6001330C7000A12A0270A167E2E78
:102C90008316861483128618632E83168614831275
:102CA000861C4D2E0C30D4000230D5000A1243226F
:102CB0000A160130C5024508C6001330C7000A12C3
:102CC000A0270A167E2E83160615831206197E2E5D
:102CD000831606158312061D682E1030D4000230AC
:102CE000D5000A1243220A16403003178D00013026
:102CF0008F000A1203138A220A167F2E2D2E932E7E
:102D00008316861583128619932E831686158312D1
:102D1000861D852E0A125C240A162B08C6000A128C
:102D200090260A16942E022DE72F8316061583127D
:102D30000619E72F2B08023C031DE72F8316061503
:102D40008312061D9E2E0A125C240A162B08C6004A
:102D50000A128A1500200A168A110A30D40002309D
:102D6000D5000A1243220A162E08C6001330C700E7
:102D70000A12A0270A16AF011F151F19BD2E1E0823
:102D8000F90083161E08F8007908FA001E0883125D
:102D9000C8007908C9000A12E0220A167A08B900A8
:102DA0007908B8007808B7007708B6003908D60067
:102DB0003808D5003708D4003608D300DA01D90125
:102DC0002030D8008130D7000A12FD220A167A0876
:102DD000C9007908C8007808C7007708C600490804
:102DE000CD004808CC004708CB004608CA00D101F6
:102DF000C030D0007F30CF008830CE000A1272235E
:102E00000A167A08B5007908B4007808B300770884
:102E1000B2003508CD003408CC003308CB003208AE
:102E2000CA000A30D100D730D0002330CF0078302C
:102E3000CE000A1272230A167A08BD007908BC0077
:102E40007808BB007708BA00C9014408C8000A1214
:102E5000E0220A167A08CB007908CA007808C9006F
:102E60007708C8003D08CF003C08CE003B08CD00E5
:102E70003A08CC000A12AF260A1603185A2FC901C5
:102E80004508C8000A12E0220A163D08CB003C089B
:102E9000CA003B08C9003A08C8007A08CF00790880
:102EA000CE007808CD007708CC000A12AF260A16AB
:102EB000031C5F2F8316061283120616632F8316D8
:102EC00006128312061283160614831206187E2F2A
:102ED000831606148312061C682F0A30D4000230B1
:102EE000D5000A1243220A160130AE072E08C6008A
:102EF0001330C7000A12A0270A16E62F831686147D
:102F000083128618992F831686148312861C832FAA
:102F10000A30D4000230D5000A1243220A160130CA
:102F2000AE022E08C6001330C7000A12A0270A16E8
:102F3000E62F8316061583120619B22F831606157F
:102F40008312061D9E2F2B08C6000A128A15002028
:102F50000A168A112E08C1000A12F72F0A1601302C
:102F6000B000E62F2D08643C031DD12F300BD12F6C
:102F70000130C007AD010A30D4000230D5000A127A
:102F800043220A16AE080319C82F01302E02C92F9A
:102F90000030AE00C6001330C7000A12A0270A1680
:102FA000E62F8316861583128619E62F831686155B
:102FB0008312861DD62F0A125C240A162B08C6001F
:102FC0000A1290260A160130AF00E72FBC2E1F2CE4
:062FD000192A72286300BB
:02400E00323F3F
:00000001FF
;PIC16F877A
;CRC=5CF4  CREATED="09-Jun-23 04:09"
